:100000000C9462000C948A000C948A000C948A0070
:100010000C948A000C948A000C948A000C948A0038
:100020000C948A000C948A000C948A000C948A0028
:100030000C948A000C948A000C948A000C948A0018
:100040000C946B030C948A000C94DB030C94B503A2
:100050000C948A000C948A000C948A000C948A00F8
:100060000C948A000C948A000000000023002600F3
:10007000290000000000240027002A0000000000E2
:10008000250028002B0004040404040404040202D4
:100090000202020203030303030301020408102007
:1000A0004080010204081020010204081020000012
:1000B0000008000201000003040700000000000027
:1000C0000000D40511241FBECFEFD8E0DEBFCDBFA6
:1000D00011E0A0E0B1E0E8EBFEE002C005900D9277
:1000E000A238B107D9F722E0A2E8B1E001C01D9221
:1000F000A433B207E1F710E0C2E6D0E004C02197D4
:10010000FE010E945407C136D107C9F70E9452046C
:100110000C945A070C94000090E0FC01E255FF4F4C
:100120002491FC01E656FF4F3491FC01EA57FF4F42
:10013000E491EE23C9F0222339F0233001F1A8F431
:10014000213019F1223029F1F0E0EE0FFF1FE458C1
:10015000FF4FA591B4918FB7F894EC91611126C02F
:1001600030953E233C938FBF08952730A9F0283067
:10017000C9F0243049F7809180008F7D03C08091C1
:1001800080008F7780938000DFCF84B58F7784BD28
:10019000DBCF84B58F7DFBCF8091B0008F778093CC
:1001A000B000D2CF8091B0008F7DF9CF3E2BDACF57
:1001B000CF93DF9390E0FC01E656FF4F24918A57DE
:1001C0009F4FFC0184918823D1F090E0880F991F04
:1001D000FC01EE58FF4FA591B491FC01E458FF4F8C
:1001E000C591D49161110EC09FB7F8948C91E22F04
:1001F000E0958E238C932881E223E8839FBFDF91D3
:10020000CF9108958FB7F894EC91E22BEC938FBFC8
:10021000F6CF3FB7F8948091930190919401A0910B
:100220009501B091960126B5A89B05C02F3F19F006
:100230000196A11DB11D3FBFBA2FA92F982F882766
:10024000BC01CD01620F711D811D911D42E0660F41
:10025000771F881F991F4A95D1F708958F929F9213
:10026000AF92BF92CF92DF92EF92FF924B015C016F
:100270000E9409016B017C010E9409016C197D0932
:100280008E099F09683E734081059105A8F321E01E
:10029000821A9108A108B10888EEC80E83E0D81E22
:1002A000E11CF11C81149104A104B10429F7FF9011
:1002B000EF90DF90CF90BF90AF909F908F90089578
:1002C000AF92BF92CF92DF92EF92FF920F931F9364
:1002D000CF93DF936C017B018B01040F151FEB01A2
:1002E0005E01AE18BF08C017D10759F06991D60159
:1002F000ED91FC910190F081E02DC6010995892BCB
:1003000079F7C501DF91CF911F910F91FF90EF9089
:10031000DF90CF90BF90AF900895FC01538D448D36
:10032000252F30E0842F90E0821B930B541710F0A0
:10033000CF96089501970895FC01918D828D9817AD
:1003400061F0A28DAE0FBF2FB11D5D968C91928D85
:100350009F5F9F73928F90E008958FEF9FEF0895B6
:10036000FC01918D828D981731F0828DE80FF11D7F
:10037000858D90E008958FEF9FEF0895FC01918D9A
:10038000228D892F90E0805C9F4F821B91098F7393
:100390009927089587E991E00E94BE0121E0892B09
:1003A00009F420E0822F089580E090E0892B29F065
:1003B0000E94CA0181110C9400000895FC01A48DD3
:1003C000A80FB92FB11DA35ABF4F2C91848D90E077
:1003D00001968F739927848FA689B7892C93A0895A
:1003E000B1898C91837080648C93938D848D9813E4
:1003F00006C00288F389E02D80818F7D8083089577
:10040000EF92FF920F931F93CF93DF93EC0181E064
:10041000888F9B8D8C8D98131AC0E889F98980810B
:1004200085FF15C09FB7F894EE89FF896083E8893E
:10043000F98980818370806480839FBF81E090E030
:10044000DF91CF911F910F91FF90EF900895F62EBD
:100450000B8D10E00F5F1F4F0F731127E02E8C8D57
:100460008E110CC00FB607FCFACFE889F98980819C
:1004700085FFF5CFCE010E94DE01F1CFEB8DEC0FB1
:10048000FD2FF11DE35AFF4FF0829FB7F8940B8FB9
:10049000EA89FB8980818062CFCFCF93DF93EC0123
:1004A000888D8823B9F0AA89BB89E889F9898C915C
:1004B00085FD03C0808186FD0DC00FB607FCF7CF18
:1004C0008C9185FFF2CF808185FFEDCFCE010E9418
:1004D000DE01E9CFDF91CF91089560E082E00E94D4
:1004E0008C0060E083E00E948C0060E084E00E9469
:1004F0008C0060E085E00C948C00FC0101900020F1
:10050000E9F73197AF01481B590BBC0187E991E02E
:100510000C946001CF93DF930E947D02EC0182E195
:1005200091E00E947D028C0F9D1FDF91CF91089575
:100530008F929F92AF92BF92CF92DF92EF92FF92F3
:100540000F931F93CF93DF93CDB7DEB7A1970FB66D
:10055000F894DEBF0FBECDBF6B017C01F7FE41C03A
:100560006DE287E991E00E9400028C012227332787
:10057000A9012C193D094E095F0919A2CE018196E6
:100580007C019AE0892E912CA12CB12CCA01B901D1
:10059000A50194010E943207605DF70162937F011B
:1005A000211531054105510589F790E080E030972C
:1005B00019F0CF010E947D02800F911FA1960FB606
:1005C000F894DEBF0FBECDBFDF91CF911F910F9189
:1005D000FF90EF90DF90CF90BF90AF909F908F9063
:1005E0000895AC019B0119A28E010F5D1F4F8AE097
:1005F000C82ED12CE12CF12CCA01B901A70196011A
:100600000E943207605DF80162938F012115310568
:100610004105510589F790E080E0309779F2CF01EC
:100620000E947D02CBCF0F931F93CF93DF93182FA0
:10063000EB0160E00E948C0083E090E00197F1F70D
:1006400061E0812F0E948C0083E290E00197F1F736
:1006500060E0812F0E948C00FE01E656FF4F6491FE
:10066000FE01EA57FF4FE491F0E0EE0FFF1FE8595B
:10067000FF4F8591949108EA11E620E030E0462F83
:100680000E940D046115710581059105F9F06F5FF8
:100690007F4F8F4F9F4F9F706115710581059105A9
:1006A000A9F00E94390626E933E44BE05DE30E949D
:1006B0009D0620E030E040E05FE30E949D060E943E
:1006C0000106DF91CF911F910F91089564E670E0CC
:1006D00080E090E0F6CF1F920F920FB60F92112498
:1006E0002F933F938F939F93AF93BF9380918F01ED
:1006F00090919001A0919101B091920130918E0161
:1007000023E0230F2D3758F50196A11DB11D20932D
:100710008E0180938F0190939001A0939101B093EB
:1007200092018091930190919401A0919501B091D3
:1007300096010196A11DB11D8093930190939401A0
:10074000A0939501B0939601BF91AF919F918F9126
:100750003F912F910F900FBE0F901F90189526E894
:10076000230F0296A11DB11DD2CF1F920F920FB67B
:100770000F9211242F933F934F935F936F937F9327
:100780008F939F93AF93BF93EF93FF9387E991E08C
:100790000E94DE01FF91EF91BF91AF919F918F91E8
:1007A0007F916F915F914F913F912F910F900FBE6D
:1007B0000F901F9018951F920F920FB60F92112451
:1007C0002F938F939F93EF93FF93E091A701F09165
:1007D000A8018081E091AD01F091AE0182FD1BC0C6
:1007E00090818091B0018F5F8F732091B10182174A
:1007F00041F0E091B001F0E0E956FE4F958F809313
:10080000B001FF91EF919F918F912F910F900FBEAB
:100810000F901F9018958081F4CFCF92DF92EF92C6
:10082000FF920F931F93E82FF92F05C00150110974
:100830002109310961F1908196239417B9F305C01C
:10084000015011092109310911F190819623941366
:10085000F7CFC12CD12CE12CF12C0AC08FEFC81A94
:10086000D80AE80AF80A0C151D052E053F0579F08F
:1008700080818623841791F36C2D7D2D8E2D9F2DE5
:100880001F910F91FF90EF90DF90CF90089560E05F
:1008900070E080E090E01F910F91FF90EF90DF906B
:1008A000CF900895789484B5826084BD84B58160CA
:1008B00084BD85B5826085BD85B5816085BD80912B
:1008C0006E00816080936E001092810080918100A3
:1008D000826080938100809181008160809381009B
:1008E000809180008160809380008091B10084605D
:1008F0008093B1008091B00081608093B0008091BE
:100900007A00846080937A0080917A00826080937C
:100910007A0080917A00816080937A0080917A00D9
:10092000806880937A001092C100E091A701F09155
:10093000A80182E08083E091A301F091A4011082DC
:10094000E091A501F091A6018FEC80831092AF0198
:10095000E091AB01F091AC0186E08083E091A901C8
:10096000F091AA01808180618083E091A901F091DA
:10097000AA01808188608083E091A901F091AA0199
:10098000808180688083E091A901F091AA01808133
:100990008F7D808361E08AE00E94D80060E08DE076
:1009A0000E94D80061E089E00E94D80060E088E001
:1009B0000E94D80061E087E00E94D80060E086E0F5
:1009C0000E94D80061E082E00E94D80061E083E0EC
:1009D0000E94D80061E084E00E94D80061E085E0D8
:1009E0000E94D8000E946D02C0E0D0E06DE070E08F
:1009F0008AE090E00E94130360938A0170938B0158
:100A000080938C0190938D0168E070E089E090E024
:100A10000E9413036093860170938701809388017D
:100A20009093890166E070E087E090E00E941303F4
:100A30006093820170938301809384019093850178
:100A400085E191E00E948A0260918A0170918B0198
:100A500080918C0190918D010E94980286E391E033
:100A60000E947D02609186017091870180918801CA
:100A7000909189010E94980286E391E00E947D0294
:100A80006091820170918301809184019091850130
:100A90000E94980282E191E00E947D02809186018D
:100AA00090918701A0918801B09189018997A10552
:100AB000B105ACF061E082E00E948C0060E083E070
:100AC0000E948C0061E084E00E948C0060E085E080
:100AD0000E948C008AE391E00E948A0234C0409117
:100AE0008A0150918B0160918C0170918D018091F0
:100AF000820190918301A0918401B09185018417B6
:100B00009507A607B707A4F5493251056105710598
:100B10007CF160E082E00E948C0061E083E00E9452
:100B20008C0061E084E00E948C0060E085E00E941F
:100B30008C0087E491E00E948A0264EF71E080E01B
:100B400090E00E942E0181E691E00E948A026CE210
:100B500071E080E090E00E942E01209709F446CFDA
:100B60000E94CA01882309F441CF0E9400003ECFB1
:100B70008997A105B1059CF061E082E00E948C009C
:100B800060E083E00E948C0060E084E00E948C00C2
:100B900061E085E00E948C0081E591E0CCCF0E946D
:100BA0006D028CE591E098CFE7E9F1E013821282C3
:100BB00088EE93E0A0E0B0E084839583A683B783BA
:100BC00084E091E09183808385EC90E09587848731
:100BD00084EC90E09787868780EC90E0918B808B07
:100BE00081EC90E0938B828B82EC90E0958B848BF0
:100BF00086EC90E0978B868B118E128E138E148E5E
:100C000008950E9408066894B1110C9497060895FF
:100C10000E947C0688F09F5798F0B92F9927B7510A
:100C2000B0F0E1F0660F771F881F991F1AF0BA9590
:100C3000C9F714C0B13091F00E949606B1E0089552
:100C40000C949606672F782F8827B85F39F0B93F44
:100C5000CCF3869577956795B395D9F73EF4909543
:100C60008095709561957F4F8F4F9F4F0895E894C1
:100C700009C097FB3EF490958095709561957F4FE4
:100C80008F4F9F4F9923A9F0F92F96E9BB27939592
:100C9000F695879577956795B795F111F8CFFAF4A2
:100CA000BB0F11F460FF1BC06F5F7F4F8F4F9F4FD3
:100CB00016C0882311F096E911C0772321F09EE831
:100CC000872F762F05C0662371F096E8862F70E097
:100CD00060E02AF09A95660F771F881FDAF7880F71
:100CE0009695879597F9089557FD9058440F551F8D
:100CF00059F05F3F71F04795880F97FB991F61F09E
:100D00009F3F79F087950895121613061406551F14
:100D1000F2CF4695F1DF08C0161617061806991F80
:100D2000F1CF86957105610508940895E894BB2775
:100D300066277727CB0197F908950E94B0060C9497
:100D400021070E94130738F00E941A0720F095230C
:100D500011F00C940A070C94100711240C949706B8
:100D60000E94740670F3959FC1F3950F50E0551FD4
:100D7000629FF001729FBB27F00DB11D639FAA27F0
:100D8000F00DB11DAA1F649F6627B00DA11D661F3F
:100D9000829F2227B00DA11D621F739FB00DA11D60
:100DA000621F839FA00D611D221F749F3327A00D1A
:100DB000611D231F849F600D211D822F762F6A2FB6
:100DC00011249F5750409AF0F1F088234AF0EE0F1B
:100DD000FF1FBB1F661F771F881F91505040A9F748
:100DE0009E3F510580F00C940A070C9497065F3FD4
:100DF000E4F3983ED4F3869577956795B795F79584
:100E0000E7959F5FC1F7FE2B880F911D96958795FB
:100E100097F9089597F99F6780E870E060E008957A
:100E20009FEF80EC089500240A9416161706180602
:100E30000906089500240A941216130614060506DE
:100E40000895092E0394000C11F4882352F0BB0F6F
:100E500040F4BF2B11F460FF04C06F5F7F4F8F4FD2
:100E60009F4F0895A1E21A2EAA1BBB1BFD010DC0C6
:100E7000AA1FBB1FEE1FFF1FA217B307E407F5074A
:100E800020F0A21BB30BE40BF50B661F771F881F26
:100E9000991F1A9469F760957095809590959B01BC
:100EA000AC01BD01CF010895EE0FFF1F0590F49135
:080EB000E02D0994F894FFCF36
:100EB80000000000000260018D014D02BE019C018E
:100EC800B0010D0A0044697374616E63657320286C
:100ED8004C656674202043656E74657220205269E3
:100EE800676874293A00202020004D4F5645204657
:100EF8004F5257415244005455524E204C45465487
:100F0800005455524E2052494748540053544F50AC
:100F1800002D2D2D2D2D2D2D2D2D2D2D2D2D2D2D26
:100F28002D2D2D2D2D2D2D2D2D2D2D2D2D2D2D2DE9
:020F38002D008A
:00000001FF
